:020000040800F2
:10300000000001200D610008D13F0008D33F0008F7
:10301000D53F0008D73F0008D93F00080000000056
:10302000000000000000000000000000DD3F00087C
:10303000DB3F000800000000DF3F0008E13F000820
:10304000E53F0008E73F0008E93F0008EB3F0008C4
:10305000ED3F0008EF3F0008F13F0008F33F000894
:10306000F53F0008F73F0008F93F000800000000A6
:103070000000000000000000000000000000000050
:103080000000000000000000094000080B4000089C
:103090000D4000080F4000081140000813400008D0
:1030A0001540000817400008194000081B400008A0
:1030B0001D4000082140000823400008254000086A
:1030C00027400008294000082B4000082D40000838
:1030D0002F40000831400008354000083740000804
:1030E000394000083B4000083D4000083F400008D0
:1030F00041400008434000084540000847400008A0
:10310000494000084B4000084D4000084F4000086F
:10311000514000085340000855400008574000083F
:10312000594000085B4000085D4000085F4000080F
:043130005FF8000044
:10313800136841F823001368013B48BF63231360F9
:103148007047F0B51368044601220020D61864259C
:1031580096FBF5FC05FB1C6554F8047B51F82550DB
:103168000132652A05FB0700F0D1F0BD38B5204DC6
:103178002B68322B01DD323B00E000232B606B68AB
:103188001C4C13B1012B06D102E023680A3B01E075
:1031980023680A332360AB6813B1012B06D102E020
:1031A8006368193B01E063681933636032201E21AC
:1031B800226801F035F933201E21626801F030F9E8
:1031C800636840F22622934201DD002303E0B3F551
:1031D8009B7F01DA0123AB602368B3F57A7F02DDB8
:1031E80000236B6038BD632B01DC01236B6038BDA5
:1031F8007001002000000020F0B506469BB01F4675
:103208000C46154600F030FF3146642201A802F052
:10321800A1FF00231A4619460BE0012903DD01A886
:10322800C05C1218D2B201A8C05CFF2808BF0131E7
:103238000133601E8342F0DB1AAB1818D24300F842
:10324800642C209800F032FF214601A800F00EFF00
:1032580000242819394600F017FF2418BC4205DA63
:1032680000F026FF0028F4D0002000E001201BB069
:10327800F0BD10B501F05EFE4FF4803001F078FE2D
:1032880001F0C6FF0128044624D1102001F0FAF805
:10329800022001F0DFF8002001F0B6FE002001F066
:1032A800C7FE4FF4806001F0B9FE4FF480304FF450
:1032B800E01101F087FE204601F08EFE392001F072
:1032C80093FF0028FAD0022001F08CFE01F094FE52
:1032D8000828FBD1012144F2080001F043FF04480B
:1032E800012101F04BFF0120BDE8104001F0CBBDEA
:1032F8000100040037B54FF440514FF0006001F071
:10330800FBFC4FF4A06001F04BFC002525230124B1
:1033180001A88DF804308DF805508DF806508DF809
:10332800074001F047FC1C2301A88DF804308DF8F4
:1033380005408DF806508DF8074001F03BFC3EBD76
:1033480073B501A801F073FB04253023032610246C
:1033580001A91948ADF804308DF806608DF80740CA
:1033680001F015FB4FF408630DEB05011248ADF8A9
:1033780004308DF8075001F00AFB4FF48863ADF86C
:1033880004300DEB050118230B488DF807308DF834
:10339800066001F0FCFA2846012101F089FB0121B1
:1033A800064801F085FB2146034801F05CFB024812
:1033B800202101F056FB7CBD000C014000043000C8
:1033C8000148002102F071BD00380140024B002283
:1033D8001A731A7B5A73704770010020034B587B8D
:1033E8001B7BC01A18BF0120704700BF7001002066
:1033F80010B5202104460D4801F035FB0B4810217B
:1034080001F02FFB0A48214602F0B7FD0848402189
:1034180002F00EFE0028F9D01021044801F023FB29
:1034280002482021BDE8104001F01BBB000C014000
:1034380000380140054B597B1A7B9142FAD05A7BE0
:103448009A18907B5A7B01325A737047700100209A
:10345800014608B5044802F090FD0348402102F0F7
:10346800E7FD0028F9D008BD0048004010B5044623
:1034780000093030392888BF0730FFF7E9FF04F02A
:103488000F0404F13000392888BF0730BDE8104028
:10349800DEE710B50446000AFFF7E8FFE0B2BDE832
:1034A8001040E3E77FB5041E05DA2D20FFF7D0FFB3
:1034B800644200250DE0FCD13020FFF7C9FFF8E792
:1034C8000A2294FBF2F302FB1342303272551C4677
:1034D800013501AE002CF3D1761904E016F8010D80
:1034E800FFF7B6FF0134AC42F8DB7FBD10B50446E8
:1034F80001E0FFF7ADFF14F8010B0028F9D110BD6A
:10350800012010B500F020FF012802D11A48FFF76A
:10351800EDFF022000F018FF012802D11748FFF73D
:10352800E5FF042000F010FF012802D11448FFF73E
:10353800DDFF082000F008FF012802D11148FFF73D
:10354800D5FF102000F000FF012802D10E48FFF738
:10355800CDFF202000F0F8FE012802D10B48FFF72C
:10356800C5FF402000F0F0FE012803D10848BDE85F
:103578001040BBE710BD00BF788C00088E8C000897
:10358800A28C0008B38C0008C88C0008D98C0008ED
:10359800EA8C00080238052810D8DFE800F0030795
:1035A80005090B0D06480AE0064808E0064806E04B
:1035B800064804E0064802E0064800E0064895E7A9
:1035C800038D0008358D0008628D0008968D00086F
:1035D800C48D0008F08D00081A8E000870B50546E5
:1035E8009EB0012306210093214802AA0B46FFF74B
:1035F80003FE0028F5D0103510241E4A1BAB1068B6
:103608005168127A03C308211A701E2300931BA85D
:103618000DEB0102083B8DF87140FFF7EDFD064602
:1036280050B91548FFF762FF0D20FFF711FF0A2078
:10363800FFF70EFF304619E00DF10D032A460DF194
:103648001D0153F8040B8B4242F8040BF9D11034D6
:10365800E4B21035002CD0D14FF49673009307488C
:10366800072102AA2346FFF7C7FD01201EB070BD3F
:10367800378E0008808A00083E8E00084D8E0008AC
:10368800F8B51E4C04F58870FFF7A8FF0022C4F8AF
:103698001022C4F81422C4F8182204F5887304F51B
:1036A8000076114610461D7C65B15D7C022D09D15E
:1036B8005D8A5F690130B7FBF5F7D2199F69B7FBDF
:1036C800F5F549191033B342EDD10C4BC4F8142267
:1036D800C4F8181260B192FBF0F2C3F8142291FBFF
:1036E800F0F00022C3F81802C3F810220120F8BD38
:1036F800D3F810220132C3F81022F8BD700100205F
:1037080070B5184C04F58870FFF768FFD4F81C52A0
:10371800D4F8201204F5887304F5007600201A7C8A
:1037280062B15A7C012A09D15A8A824206DD5D6952
:103738009969B5FBF2F5B1FBF2F110461033B342CB
:10374800EDD1084BC4F81C52C4F8201220B1002255
:10375800C3F82422012070BDD3F824220132C3F813
:10376800242270BD7001002010B588B005A801F0B2
:1037780080FF01A801F086FF4FF0804001F0F2FDC4
:1037880000244FF0FF3305A94FF08040ADF8183002
:10379800ADF81440ADF81A40ADF8164001F046FEF9
:1037A80001224FF0804040F2D22102F007F8104B7E
:1037B80001A91B894FF08040ADF80A30ADF80440EC
:1037C800ADF80640ADF80C4001F04EFE21464FF032
:1037D800804002F078F802214FF08040012201F089
:1037E80086FF4FF08040012101F067FF08B010BD4F
:1037F8000000002010B54FF08040022102F096FA38
:10380800E8B102214FF0804002F09BFA4FF080406F
:1038180002F06FFA0A4C0B4BC4F82802D4F82812AD
:103828001B894FF08040C91889B202F08FF9D4F88B
:103838002C3223B1D4F82C32013BC4F82C3210BD01
:10384800700100200000002038B5084840F22551DA
:1038580002F0F8FB40B1064C0448257B02F091FBCE
:10386800631901359873257338BD00BF00380140CE
:103878007001002010B542F2283001F003FD01204C
:10388800BDE8104001F018BD074BD3F8302222B133
:10389800D3F83022013AC3F83022D3F83422013267
:1038A800C3F83422704700BF70010020034BC3F8EF
:1038B8003002D3F83022002AFBD170477001002073
:1038C80030B585B0044668460D4602F0CDFA0023AF
:1038D800ADF80430ADF80630ADF80830ADF80C306E
:1038E8000C230095ADF80A308CB9124802F02EFA74
:1038F8000A20FFF7DBFF0F48694602F071FA0D480E
:1039080040F22551012202F0DCFA0A480CE0022CB0
:103918000DD1094802F01AFA0A20FFF7C7FF064836
:10392800694602F05DFA0448012102F0BEFA05B0CA
:1039380030BD00BF0038014000480040014600206B
:10394800BEE72DE9F84FA64DFFF793FCFFF7D2FC31
:10395800FFF7F6FCFFF78EFFFFF706FF012001F0E7
:1039680097FC0220E968FFF7ABFF4FF4FA60FFF716
:103978009DFF0121002000F09DFBFE201021022266
:1039880000F024FDFE201C21402200F01FFDFE2037
:103998001B21002200F01AFDFE201821012200F050
:1039A80015FD1C2180220B2000F03AFD15201C215A
:1039B800802200F035FD0F201C21202200F030FD70
:1039C80019201C21202200F02BFD1E201C21102272
:1039D80000F026FD1F201C21102200F021FD2820C8
:1039E8001C21102200F01CFD7E4C29201C211022D5
:1039F80000F016FD0A2384F838321DE094F8387276
:103A08002421384600F0F4FC94F8383205EB4707D7
:103A1800388205EB4303188A724E0028EED0FFF770
:103A280038FD0D20FFF714FD0A20FFF711FD96F869
:103A38003832013386F8383294F838320F2BDDD912
:103A4800684B142283F838221DE094F83872242138
:103A5800384600F0CDFC94F8383205EB4707388239
:103A680005EB4303188A5F4E0028EED0FFF711FDDF
:103A78000D20FFF7EDFC0A20FFF7EAFC96F8383234
:103A8800013386F8383294F83832192BDDD9554B82
:103A98001E2283F838221DE094F838722421384613
:103AA80000F0A6FC94F8383205EB4707388205EB9E
:103AB8004303188A4B4E0028EED0FFF7EAFC0D208E
:103AC800FFF7C6FC0A20FFF7C3FC96F8383201332B
:103AD80086F8383294F83832202BDDD9414B282229
:103AE80083F838221DE094F838722421384600F013
:103AF8007FFC94F8383205EB4707388205EB43031F
:103B0800188A384E0028EED0FFF7C3FC0D20FFF7C7
:103B18009FFC0A20FFF79CFC96F83832013386F8A0
:103B2800383294F838322F4E2A2BDCD932201E2115
:103B38002A6800F075FC00276A6833201E2100F00F
:103B48006FFC3760C6F83C72C6F8407224210F201B
:103B580000F04EFC242106461920B5F82E8000F00E
:103B680047FCB5F8429036B2C9F10009C8EB09081C
:103B7800464400B2242106EB00090B2000F038FC73
:103B880024218246152000F033FC0FFA8AFA00B28D
:103B98008244AAF5805AB84601230AE01D2F05DDA4
:103BA8003B2FD4BF4FF0FF33002300E0012308F17F
:103BB80004080D4A1D2F42F8083005DD3B2FD4BFFD
:103BC8004FF0FF33002300E00123084A42F8083091
:103BD80077B1012F0CBF4FF0FF32002209E000BF80
:103BE8000000002070010020B403002044050020DC
:103BF8000122664E504606F5AC63043343F80820AC
:103C080006F5DE6106F5086204310432FFF790FA22
:103C180006F5086106F52062083118324846013772
:103C2800FFF786FA642FB9D14FF44873C822C6F853
:103C38001C3A00233260C6F83C32C6F84022984647
:103C480024210B2000F0D4FB24218246152000F00B
:103C5800CFFB0FFA8AFA00B2242182440F2000F029
:103C6800C7FB242106461920EF8D00F0C1FBB5F8EB
:103C78004290D4F84022C9F10009142392FBF3F3CF
:103C8800C7EB0907FF1836B2BE1900B2404906EB68
:103C98000009C844484601F5C8724FF47A76FFF720
:103CA80047FA98FBF6F609EBD97306EB6306642E20
:103CB800AAF5805A05DC6FF063039E42B8BF1E4622
:103CC80000E064260A2707FB09F7C82F05DC6FF018
:103CD800C7039F42B8BF1F4600E0C8272D4950467A
:103CE80001F5C872FFF724FADFF8B4A04846D047B8
:103CF8002948FFF7FBFB3846D0472748FFF7F6FB74
:103D08003046D0472448FFF7F1FB0020D04723482E
:103D1800FFF7ECFBD4F83432D4F81C9AB3FBF9F073
:103D280009FB103002F066FF8246484602F066FF43
:103D38000146504603F06AF84FF07E51824603F080
:103D48006DF908B14FF07E5A50464FF07C51C4F8D7
:103D580020AA03F063F948B15146504602F09AFE92
:103D68004FF07E5102F094FE814601E04FF00009C9
:103D780050464FF07C51C4F8249A03F031F988B1C9
:103D88005046514602F086FE0EE000BF700100204A
:103D9800F809002064080020548E0008568E000898
:103DA800AD3400084FF07E50C4F8280A206802F0AD
:103DB800CBFB824648468B4602F0D8FB03F0F2F96B
:103DC80073A3D3E9002302F025FC03F09FF9024610
:103DD8000B465046594602F01DFC0022704B02F07B
:103DE80065FA02F029FEC4F82C0A206802F0ACFB40
:103DF8008246D4F8280A8B4602F0B8FB03F0D2F9C1
:103E080063A3D3E9002302F005FC03F07FF902461F
:103E18000B465046594602F0FDFB0022604B02F06B
:103E280045FA02F009FEC4F8300AD4F8200A02F074
:103E38009DFB59A3D3E9002302F0ECFB82468B4695
:103E480003F01CF90022002302F0E4FB02F0F4FD69
:103E58005946C4F8340A504603F058F982468B464E
:103E6800D4F83C0202F070FB52465B4602F0D2FBEB
:103E780002F0E2FD8146C4F8380AD4F84002381846
:103E880002F062FB5B46524602F0C4FB02F0D4FD2E
:103E9800AA8CC4F83C0A4A440A201E2100F0C0FA41
:103EA800D4F8383A2A8F14201E21D21A00F0B8FA12
:103EB800D4F8342AEB8C3C3A0B201E21D21800F09F
:103EC800AFFAD4F8342A6B8F3C3215201E21D21851
:103ED80000F0A6FAD4F8303A2A8D0C20D21A1E2106
:103EE800921B00F09DFAD4F8303A6A8D0D20D21852
:103EF8001E21921900F094FAD4F82C3AAA8F1620B1
:103F0800D21A1E21921B00F08BFAD4F82C3AEA8FB1
:103F18001720D2181E21921900F082FA6FF00503BB
:103F28005E43AA8DD4F83C3A0E20D21A1E2192196B
:103F380000F076FAD4F83C3AB5F840201E21D218A1
:103F48009219182000F06CFAE88D02F057FED4F8A8
:103F5800401A02F09DFD002102F09CFD03F068F874
:103F68001E2102460F2000F05BFAB5F8420002F06D
:103F780045FED4F8401A02F08BFD002102F08AFDBC
:103F880003F056F81E210246192000F049FA57E6B8
:103F98001F85EB51B81E09401F85EB51B81E19400B
:103FA80000004940014BC3F82C0270477001002003
:103FB800034BD3F82C02D0F1010038BF0020704722
:103FC80070010020AFF300807047FEE7FEE7FEE7D0
:103FD800FEE7704770477047FFF756BC7047704759
:103FE8007047704770477047704770477047704711
:103FF8007047704770477047704770477047704701
:1040080070477047704770477047704770477047F0
:1040180070477047FFF7EEBB7047704770477047AF
:104028007047704770477047FFF70EBC704770477E
:1040380070477047704770477047704770477047C0
:1040480070477047704770477047704770477047B0
:10405800704770477047704708B50846FFF76EFC11
:10406800012008BDFFF7ACB9FFF7B0B970B5064637
:104078000D460024AC4205DA305D0134FFF7B8F98B
:10408800E4B2F7E7284670BD70B506460D46002431
:10409800AC4209DAFFF7A2F928B1FFF7CBF930559E
:1040A8000134E4B2F4E72546284670BDFFF77ABF2D
:1040B800FFF77EBF08B5074B013193FBF1F1FFF71E
:1040C800CBFF28B1044B01201860044B00221A6072
:1040D80008BD00BF80841E0074000020EC0B002087
:1040E800FFF7C0BF254B70B51A681E46012A44D099
:1040F80001221A60DA79982A06D8197A481EC0B2BD
:10410800052807D9832905D01D4A042111600022FA
:104118001A6070BDFF2333717371FF3B194605E0C8
:104128007018807901311B18DBB2C9B28A42F7DAFC
:10413800134DDB43B218D3712B68063B012B01D812
:10414800FFF792FFF6790D4C0436F6B2201D314682
:10415800FFF78CFFC0B2864204D002232B60023BDB
:10416800236070BD237A022B02D1A07A063000E0CA
:104178000620FFF79BFF00232B6070BDEC0B00208F
:1041880074000020F8B5574B1A681C46002A00F046
:10419800A8809A79544DFE2A04D1FD3A2A60013A42
:1041A8001A60F8BD2B6823B984F8A430063384F864
:1041B800A5304C4E94F8A43094F8A51006F1A60743
:1041C800F818C91AFFF760FF94F8A43094F8A520EE
:1041D800C318DBB29A4284F8A4300DD9FFF768FF00
:1041E800012809D196F8A4300BB9063300E007235B
:1041F8002B6000232360F8BD94F8A41000234A1E06
:104208008E1E12E0E01890F8A6C0BCF1FF0F03D193
:1042180090F8A700FF280AD0B34204D1A01890F85C
:10422800A600FF2803D00133DBB29342EADB7BB15F
:10423800002208E0E618B61896F8A660A018013221
:1042480080F8A660D2B2C81A8242F3DB84F8A400D0
:1042580094F8A43094F8A520224E9A421FD8B17938
:1042680096F8A820914204D007232B60073B3360BF
:10427800F8BD96F8A9100431C9B28B4286F8A5108A
:1042880010D2F818C91AFFF7FFFE96F8A43096F86E
:10429800A520C318DBB29A4286F8A43002D90523B8
:1042A8002B60F8BD002394F8A9101A4606E0A01860
:1042B80090F8A80001321B18DBB2D2B29142F6DAAC
:1042C8006418DB4394F8A910DBB29942054A4FF011
:1042D800000303D0072129601360F8BD012129607C
:1042E8001360F8BDEC0B00207400002010B5FFF738
:1042F800F9FE054B1A681C4622B9FFF743FF2368ED
:10430800052BFAD010BD00BF74000020014B1868BF
:10431800704700BF74000020014B9871704700BFC0
:10432800EC0B0020014B1872704700BFEC0B00200B
:10433800014B1B1859727047EC0B0020014BD871C8
:10434800704700BFEC0B0020034B93F8AA301842CB
:104358000CBF002001207047EC0B0020014B93F8A4
:10436800A9007047EC0B0020024B1B1893F8AB0018
:10437800704700BFEC0B00200902081880B2704794
:10438800C0B2704700F47F40000A7047044B1A68B7
:104398002AB901321A7201329871DA71A6E7FEE77A
:1043A800EC0B002010B5084C236863B90233237264
:1043B800013BA3720333A0716172E371FFF796FFAB
:1043C80094F8AB0010BDFEE7EC0B0020074B10B5CE
:1043D8001C684CB998719A72032004221872597299
:1043E800DA71BDE8104081E7FEE700BFEC0B002062
:1043F80010B50A4C23687BB902332372A3720233C7
:10440800A0716172E371FFF771FF94F8AB0094F843
:10441800AC10BDE81040AFE7FEE700BFEC0B002092
:1044280070B50B4C1546236883B90333A071104649
:1044380023726172FFF7A4FFA0722846FFF7A2FF5C
:104448000523E072E371BDE870404FE7FEE700BF67
:10445800EC0B0020044B1A6802F0380119601A6846
:1044680010431860704700BF00200240044B1A68D0
:1044780022F0080119601A6810431860704700BFDD
:1044880000200240044B1A6822F0100119601A68D3
:1044980010431860704700BF00200240034A044BD5
:1044A80002F188305A605860704700BF23016745A1
:1044B80000200240024B1A6942F0800018617047E0
:1044C80000200240014BD869800870470020024054
:1044D800014B186A704700BF00200240024BD869A0
:1044E800C0F34000704700BF00200240024B18682C
:1044F800C0F34010704700BF00200240044B1A6907
:1045080009B1104301E022EA00001861704700BFBA
:10451800002002400128064B03D1D86900F00100B1
:104528007047D96808420CBF00200120704700BFBF
:1045380000200240014BD860704700BF00200240B5
:10454800084BDA68D10709D4D868420708D4D96873
:1045580011F0100F0CBF0420032070470120704792
:10456800022070470020024013B50446FFF7E8FF19
:1045780001280FD164B100230193FF220192019811
:1045880010B101994A1EF9E7FFF7DAFF013CEFE79E
:10459800052002E0002C08BF05201CBDF8B5114B12
:1045A800114C054603F18830A360A0600F200E4629
:1045B8001746FFF7D9FF042813D1216945F0F805FC
:1045C8000A4B2E4341F01002374322610F205F80CF
:1045D800FFF7CAFF012804D0216941F6EF720A40AB
:1045E8002261F8BD230167450020024000F8FF1F43
:1045F80038B5054640F6FF70FFF7B6FF042838D1F6
:104608001C4B1D4C03F18830A360A060216941F068
:1046180020022261236943F04000206140F6FF70C8
:10462800FFF7A2FF04281DD1206941F6DF7303407C
:1046380023612169114841F0100222610DB1002364
:1046480000E0A523038040F6FF70FFF78DFF0128E7
:1046580001D1012038BD084A41F6EF7311690B40BA
:10466800136138BD0128F4D0216941F6DF720A4090
:10467800226138BD230167450020024000F8FF1F72
:1046880010B504460F20FFF76FFF04283ED12049DC
:10469800204B01F1883099609860E4431969E2B2CF
:1046A80041F01000FF2A186104D1C4F30721FF2943
:1046B80008D10EE0184B0F201A81FFF755FF042888
:1046C8001CD1F2E7144A0F205181FFF74DFF04284F
:1046D80014D1C4F30740FF2806D00F4B98810F2050
:1046E800FFF742FF042809D1240EFF2C01D1042032
:1046F80006E009490F20CC81FFF736FF012805D0D5
:10470800044A41F6EF7311690B40136110BD00BFF5
:10471800230167450020024000F8FF1F70B50546D9
:104728000F200E46FFF720FF042814D10A4B0B4C2C
:1047380003F18830A360A06021690F2041F01002C6
:1047480022612E80FFF710FF012804D0216941F66D
:10475800EF730B40236170BD2301674500200240C1
:1047680070B505460F200E46FFF7FEFE04280FD150
:10477800084C236943F0010020610F202E80FFF7C9
:10478800F3FE012804D0226941F6FE71114021612F
:1047980070BD00BF0020024070B505460F200E46D0
:1047A800FFF7E2FE042819D10D4CB1B2236943F09A
:1047B800010020610F202980FFF7D6FE042804D1CC
:1047C800360C6E800F20FFF7CFFE012801D10120A3
:1047D80070BD226941F6FE731340236170BD00BFAE
:1047E8000020024010B540F6FF70FFF7BDFE042818
:1047F8002BD1164B164C03F18830A360A0602169B9
:1048080041F020022261236943F04000206140F614
:10481800FF70FFF7A9FE04280ED1216941F6DF7267
:104828000A40226123690B4A43F01000A521206148
:1048380011800F20FFF798FE012801D1012010BD3B
:10484800216941F6EF730B40236110BD23016745D1
:104858000020024000F8FF1F10B540F6FF70FFF778
:1048680083FE042813D10A4C236943F00400206115
:10487800216940F6FF7041F040022261FFF774FEA3
:10488800012804D0216941F6FB730B40236110BD58
:104898000020024038B5054640F6FF70FFF764FE79
:1048A800042814D10A4C236943F002002061656191
:1048B800216940F6FF7041F040022261FFF754FE83
:1048C800012804D0216941F6FD730B40236138BDEE
:1048D8000020024008B5264B98422FD011D8A3F5E6
:1048E800006188421ED001F58062904220D0A2F576
:1048F800006398423AD10420012100F04BFC0420C7
:104908002FE01C4988421FD001F58062904221D0D7
:10491800A2F50063984229D14020012100F03AFC19
:1049280040201EE00820012100F034FC082018E097
:104938001020012100F02EFC102012E0202001217F
:1049480000F028FC20200CE08020012100F022FC4F
:10495800802006E04FF48070012100F01BFC4FF42A
:1049680080700021BDE8084000F014BC08BD00BFFD
:1049780000140140001C01400120014608B500F068
:1049880009FC01200021BDE8084000F003BCCB78F9
:10499800F0B5DA0648BF8A78098803F00F0548BFE2
:1049A800154311F0FF0F1ED004680022012707FAF3
:1049B80002F707EA0106BE4211D197004FF00F0C2B
:1049C8000CFA07FC05FA07F724EA0C04282B44EA3A
:1049D800070401D1466102E0482B08BF0661013295
:1049E800082AE3D10460FF2920D94468002202F193
:1049F8000806012707FA06F707EA0106BE4211D1A1
:104A080097004FF00F0C0CFA07FC05FA07F724EA99
:104A18000C04282B44EA070401D1466102E0482B24
:104A280008BF06610132082AE1D14460F0BD4FF6A3
:104A3800FF730221042203808170C270704783686B
:104A480019420CBF002001207047806880B270476F
:104A5800C36819420CBF002001207047C06880B2AB
:104A6800704701617047416170470AB10161704741
:104A780041617047C160704741F48033836181614F
:104A88008361836983697047054A10B514684FF6D6
:104A98008073234041EA001141EA0300106010BD11
:104AA80000000140014B1860704700BF1C00204205
:104AB80030B5144A00F44015B5F5401F536884B268
:104AC80006D1556823F0706325F0706555600FE0D6
:104AD800C20205D5C0F30342032505FA02F203E03A
:104AE800420D120104FA02F223EA020343F0706352
:104AF80021B1400D010104FA01F42343014A536036
:104B080030BD00BF0000014001F0030230B5920043
:104B18000F2404FA02F400FA02F0074B8908023164
:104B280053F8215025EA040443F8214053F8214062
:104B3800044343F8214030BD000001400B4B6FF0A7
:104B480070424FF0FF31C3F88010C3F88420C3F8D7
:104B58008011C3F88421002202F1C0010132002033
:104B68000F2A43F82100F7D1704700BF00E100E0A9
:104B7800094B4FF0206209495A6000204FF0FF327C
:104B88009860D960186158619861D8611862586254
:104B98009A62DA621A63704700ED00E00000FA05D5
:104BA80040F0BF60024B40F40031D960704700BF4D
:104BB80000ED00E0C37870B573B31D4C4378E56829
:104BC800EE43C6F302210F25C1F1040225FA01F5CF
:104BD80003FA02F486780178354001F00302254390
:104BE8002D01D4008A08FF2105FA04F501FA04F121
:104BF800104BC03253F8226026EA010429402143B1
:104C080043F822100078410900F01F02012000FA41
:104C180002F243F8212070BD0078012200F01F0342
:104C2800410902FA03F0034B203143F8210070BD1B
:104C380000ED00E000E100E00023037043708370A2
:104C4800C370704701F04BBA01F04BBA01F04BBA90
:104C580001F04BBA000101F04ABA01F04BBA024B1D
:104C68005868C0F30930704700ED00E000F01F03FA
:104C7800012202FA03F14009044B403053F8202086
:104C88000A40511A48424841704700BF00E100E01D
:104C9800014B1860704700BF00EF00E04209012394
:104CA80000F01F0003FA00F10248603240F82210B9
:104CB800704700BF00E100E0024B58688105880D8D
:104CC800704700BF00ED00E000F01F03012202FA68
:104CD80003F14009044B803053F820200A40511A50
:104CE80048424841704700BF00E100E0014B1868A6
:104CF800704700BF00ED00E021F0604121F07F0225
:104D0800014B10439860704700ED00E0014A024BE8
:104D1800DA6070470400FA0500ED00E0014A024B32
:104D2800DA6070470100FA0500ED00E0044B1A69EB
:104D380009B1104301E022EA00001861704700BF82
:104D480000ED00E0012300F01F0003FA00F0044B1F
:104D58005A6A09B1104301E022EA0000586270471C
:104D680000ED00E0124B70B5DC68E543C5F30226A0
:104D7800FF25C6F1040425FA06F601FA04F13240CB
:104D88001143C0F38112C0F30120C00005FA00F5F9
:104D9800090101FA00F1063253F8224024EA050518
:104DA80043F8225053F82260314343F8221070BD73
:104DB80000ED00E0C0F38320012303FA00F3034A67
:104DC800516A1940CB1A58425841704700ED00E02B
:104DD80000F01F00012101FA00F0024B5A6802435B
:104DE8005A60704700ED00E000F01F00411E0120EE
:104DF80000FA01F1024B5A680A435A60704700BF33
:104E080000ED00E0C0F38330012303FA00F3054A04
:104E1800516A1940B1EB030CDCF1000050EB0C00B7
:104E2800704700BF00ED00E0C0F38142094B0AB9AA
:104E3800D86A7047012A0BD1C0F30151986ACA0099
:104E480020FA02F0022914BF00F00F00C0B2704728
:104E5800186B704700ED00E0034B10F4800F0CBF97
:104E6800586B986B704700BF00ED00E0012108B552
:104E78004FF0805000F09AF94FF080500021BDE8C3
:104E8800084000F093B9014B1860704720000E42AB
:104E9800014B1860704700BF10000E42034B1A68A0
:104EA80022F0E00108431860704700BF007000401E
:104EB800014B1860704700BFA0000E42084B012943
:104EC8001A6822F0030240EA0200186005480368E5
:104ED80043F00402026001D101F0DCB801F0DCB853
:104EE8000070004010ED00E0074B1A6842F0040023
:104EF8001860196841F002021A60044B186840F003
:104F08000401196001F0C6B80070004010ED00E01F
:104F1800034B596808420CBF00200120704700BFAE
:104F280000700040024B1A6842EA8000186070471F
:104F3800007000400C4B1A6842F001001860596874
:104F48000A4A0A405A60186820F0847121F48032B5
:104F58001A60186820F4802119605A68002122F428
:104F6800FE00586099607047001002400000FFF88A
:104F78000B4BB0F5803F1A6822F4803119601A682B
:104F880022F48021196006D0B0F5802F07D1186867
:104F980040F4A02202E0196841F480321A60704798
:104FA80000100240034B1A6822F0F80141EAC000E1
:104FB8001860704700100240014B1860704700BF2E
:104FC80000004242034B5A6822F47C12104301430A
:104FD8005960704700100240014B1860704700BFCD
:104FE80060004242034B5A6822F0030108435860AC
:104FF800704700BF00100240024B586800F00C00D8
:10500800704700BF00100240034B5A6822F0F001BD
:1050180008435860704700BF00100240034B5A68AD
:1050280022F4E06108435860704700BF0010024056
:10503800034B5A6822F4605141EAC0005860704737
:1050480000100240044B1A7809B1104301E022EA2B
:1050580000001870704700BF09100240014B18602B
:10506800704700BFD8004242034B5A6822F44041BF
:1050780008435860704700BF00100240064B0022EA
:1050880001281A701A7004D0042804D10520187059
:1050980001E018707047704720100240014B1860FB
:1050A800704700BF80044242024B1A6A10431862DC
:1050B800704700BF00100240014B1860704700BFE6
:1050C8003C0442421D4B10B55A6802F00C010429F9
:1050D80001D0082902D01A4C04600EE05C685968B7
:1050E800C4F38342941CC90302D55B689B0301D5B2
:1050F800144A00E0124A54430460104A124B5168A3
:10510800C1F303141C5D016821FA04F1416054687D
:10511800C4F302241C5D21FA04F484605468C4F3C7
:10512800C2241C5D21FA04F1C1605268C2F38132C5
:105138009B181A7CB1FBF2F1016110BD001002400E
:1051480000127A0000093D00898A0008044B5A6958
:1051580009B1104301E022EA00005861704700BF1E
:1051680000100240044B9A6909B1104301E022EA99
:1051780000009861704700BF00100240044BDA69D4
:1051880009B1104301E022EA0000D861704700BF6E
:1051980000100240044BDA6809B1104301E022EA2A
:1051A8000000D860704700BF00100240044B1A6925
:1051B80009B1104301E022EA00001861704700BFFE
:1051C80000100240014B1860704700BF4004424283
:1051D800014B1860704700BF4C004242014B1870E9
:1051E800704700BF071002404309012B074A01D14D
:1051F800136803E0022B0CBF136A536A00F01F0008
:1052080023FA00F101F00100704700BF00100240CE
:1052180007B5002301933120FFF7E6FF01994A1CE7
:10522800019218B90198B0F5A06FF4D13120FFF7B9
:10523800DBFF003018BF01200EBD034B5A6A42F055
:1052480080705862704700BF00100240034B996895
:1052580008420CBF00200120704700BF0010024028
:10526800014B1870704700BF0A100240044B042815
:105278001A680CBF42F0040222F004021A60704758
:1052880010E000E0014B5860704700BF10E000E0FC
:105298000128084B03D11A6842F0010104E00230EA
:1052A80004D1186820F001011960704700229A6043
:1052B800704700BF10E000E0044B1A6810B142F0DC
:1052C800020001E022F002001860704710E000E0E0
:1052D800014B9868704700BF10E000E00549C3081B
:1052E800022B0CBF0968C96821FA00F000F0010020
:1052F800704700BF10E000E030B5048C24F00105D1
:105308002C04250C0584048BA5B2048C25F0F30528
:105318002A43A4B242EA031324F0020242F0010431
:105328009DB221430583018430BD30B5048C24F03F
:1053380010052C04250C0584048B058C24F440747A
:105348002405240D44EA0222ADB242EA033325F0D3
:1053580020059AB245F0100343EA01118DB2028389
:10536800058430BD08B52E4B984246D010D8A3F519
:105378000061884231D001F58062904237D0B0F1A7
:10538800804F4BD101200146FFF710FF012029E093
:10539800244B984237D009D8A3F5806188423DD183
:1053A80010200121FFF702FF10201BE01E4A904247
:1053B8000BD002F50063984230D14FF40050012120
:1053C800FFF7E8FE4FF4005023E04FF4006001219E
:1053D800FFF7E0FE4FF400601BE002200121FFF719
:1053E800E5FE02200021BDE80840FFF7DFBE0420EB
:1053F8000121FFF7DBFE0420F4E708200121FFF775
:10540800D5FE0820EEE720200121FFF7CFFE20205F
:10541800E8E70021BDE80840FFF7BCBE08BD00BFB3
:10542800000C004000140040002C0140038803F0E9
:105438008F0202800388CA889BB213434A881343A9
:105448009BB203808A880B8882850385054B0122DD
:105458009842828203D003F50062904201D1097A12
:1054680001867047002C0140038C70B523F00102BF
:105478001404250C0584068C8388028B9CB222F0C8
:1054880070052B040D881A0C26F0020633042A43F3
:105498004E880D891B0C3543ADB22B43CD888586CC
:1054A8000D4DA84203D005F50065A8420FD14D89DE
:1054B80023F008032B438D8823F004032B4347F67E
:1054C800FF452540CC8989890C43A4B22C438480AC
:1054D8000283038470BD00BF002C0140038C30B5EB
:1054E80023F010021404250C0584038C8288048B95
:1054F80023F0200324F4E0452C040D88240C44EA0E
:1055080005241D042B0C0D8992B243EA05134D881E
:10551800A4B243EA0513CD889BB20587104DA84273
:1055280003D005F50065A84216D14D8923F0800304
:105538009BB243EA05134FF6BF751D408B8845EAB9
:105548000315ABB247F2FF3515408A89C98945EA88
:10555800820545EA810292B282800483038430BDC9
:10556800002C0140038C30B523F480721404250C00
:105578000584038C8288848B23F4007324F07005DF
:105588002C040D88240C2C431D042B0C0D8992B27D
:1055980043EA05234D8843EA0523CD889BB28587D6
:1055A800104DA84203D005F50065A84216D14D89D3
:1055B80023F400639BB243EA05234FF6FF351D40F1
:1055C8008B8845EA0325ABB244F6FF7515408A89F6
:1055D800C98945EA021545EA011292B2828084839C
:1055E800038430BD002C0140038C30B523F4805275
:1055F8001404250C0584038C8288858B94B225F4C9
:10560800E04215042A0C0D8823F4005342EA0522CF
:105618001D042B0C0D8992B243EA05334D8843EAE9
:105628000533CD889BB2A0F84050084DA84203D05E
:1056380005F50065A84205D18989A404890141EAD4
:105648009444A4B284808283038430BD002C01403A
:105658004A880B8813438A881343CA8813430A89E4
:1056680013434A89898913430B439BB2A0F84430FA
:10567800704700214FF6FF7383800180C18041800D
:10568800017270470023038043808380C3800381B5
:1056980043818381C38170470023012203804380B3
:1056A8008280C38003817047002303804380838006
:1056B800C3800381438183817047038819B199B2FC
:1056C80041F0010303E023F001018A05930D0380F3
:1056D8007047B0F8443029B16FEA43436FEA534149
:1056E8008AB201E059044A0CA0F844207047838923
:1056F8009BB20AB1194301E023EA01018181704795
:10570800818270470A43A0F84820704783899BB27A
:105718000AB1194301E023EA010181817047038935
:1057280023F007010A04130C03817047038923F04F
:10573800700213041A0C1143018101898BB243F0E2
:1057480007020281704738B50D4611460122602DC7
:10575800044602D1FFF7E9FD01E0FFF7CDFD2389FB
:1057680023F0700001040A0C45EA02032381208912
:1057780081B241F00702228138BD10B50489E4B234
:1057880021430A4342EA03239CB2048110BD10B5A9
:105798000446FFF7F2FF238998B240F48041218143
:1057A80010BD10B50446FFF7E8FF238923F0770002
:1057B80001040A0C42F07703238110BD018582821F
:1057C8007047038823F0700293059A0D11430180F6
:1057D8007047038923F0700213041A0C11430181E6
:1057E800704770B50589048B068C24F44074B6B2F2
:1057F80024F0030426F0220625F00705240432438A
:105808002D04240C2D0C44F4807442EA031329431C
:1058180044F001049EB201810483068470BD038BA9
:1058280023F0700213041A0C114301837047038B91
:1058380023F4E04213041A0C42EA01218BB20383D9
:105848007047838B23F0700213041A0C1143818371
:105858007047838B23F4E04213041A0C42EA0121B7
:105868008BB283837047038819B199B241F08003E2
:1058780003E023F080018A05930D03807047838835
:1058880019B199B241F0040303E023F004010A04BA
:10589800130C83807047838819B199B241F00803CB
:1058A80003E023F008010A04130C838070478388FF
:1058B80019B199B241F0010303E023F001010A0490
:1058C800130C83807047038B23F0080213041A0C0F
:1058D800114301837047038B23F4006213041A0CED
:1058E80042EA01218BB203837047838B23F00802BD
:1058F80013041A0C114381837047838B23F40062CD
:1059080013041A0C42EA01218BB283837047038B7C
:1059180023F0040213041A0C114301837047038B0C
:1059280023F4806213041A0C42EA01218BB2038328
:105938007047838B23F0040213041A0C11438183EC
:105948007047838B23F4806213041A0C42EA012106
:105958008BB283837047038B23F0800213041A0CE5
:10596800114301837047038B09025A0441EA5243E9
:105978009AB202837047838B23F0800213041A0CB7
:10598800114381837047838B09025A0441EA5243C9
:105998009AB282837047038C23F0020213041A0C14
:1059A800114301847047038C23F0080213041A0C76
:1059B800114301847047038C23F0200213041A0C4E
:1059C80042EA01118BB203847047038C23F08002F2
:1059D80013041A0C42EA01118BB203847047038C3A
:1059E80023F4007213041A0C42EA01218BB20384D7
:1059F8007047038C23F4006213041A0C42EA012155
:105A08008BB203847047038C23F4005213041A0CDE
:105A180042EA01318BB203847047012303FA01F390
:105A280002FA01F210B5048CA4B224EA0303038439
:105A3800038C42EA03018AB2028410BD042303FAEC
:105A480001F302FA01F210B5048CA4B224EA0303AC
:105A58000384038C42EA03018AB2028410BD012345
:105A680003FA01F310B5048CA4B224EA03040484F5
:105A7800183009B1082907D1490844584FF68F73DF
:105A88002340435043580AE00439C1F34E014458B7
:105A980048F6FF73234043501202435892B21A4308
:105AA800425010BD038819B199B241F0020303E0D6
:105AB80023F002018A05930D03807047038819B10A
:105AC80099B241F0040303E023F004018A05930D21
:105AD80003807047838819B199B241F0800303E0CD
:105AE80023F080010A04130C83807047038823F095
:105AF800080293059A0D028003889AB21143018027
:105B08007047838823F0700213041A0C82808388FC
:105B18009AB2114381807047038923F00702130466
:105B28001A0C028103899AB21143018170470389D3
:105B380023F0800213041A0C028103899AB21143DC
:105B480001817047818470478185704781867047DD
:105B58000187704781877047A0F840107047038B12
:105B680023F00C0213041A0C0283038B9AB211431C
:105B780001837047038B23F4406213041A0C0283D9
:105B8800038B9AB242EA01218BB203837047F8B5BE
:105B98000C46A2884988B4F800E0054600290CBFE5
:105BA80002270027012A14BF012602262389BEF1F5
:105BB800000F11D1FFF7A0FB2846E188FFF7CFFFC0
:105BC8002846394632462389FFF7AFFBE188284645
:105BD800BDE8F840FFF7CEBFFFF7A7FB2846E188EE
:105BE800FFF7C8FF2846394632462389FFF784FB6A
:105BF800E1882846BDE8F840FFF7B1BF838B23F062
:105C08000C0213041A0C8283838B9AB2114381838A
:105C18007047838B23F4406213041A0C8283838BAE
:105C28009AB242EA01218BB283837047F8B50B8898
:105C38000D4604464988AA8843B92B89FFF75CFBBF
:105C4800E9882046BDE8F840FFF789BF042B08D152
:105C58002B89FFF76AFBE9882046BDE8F840FFF783
:105C680089BF082B2F89068C1CD126F48076330433
:105C78001E0C0684838B9EB2038C26F0F3069BB21F
:105C880023F4007346EA071743EA0121BFB28BB237
:105C980043F480713A4382830184E988BDE8F8407F
:105CA800FFF7ACBF26F480531E04330C0384838BA8
:105CB800068C23F440731B051B0DB6B243EA02227F
:105CC80042EA073326F4005242EA01318AB242F42A
:105CD80080519BB283830184E988BDE8F840FFF7CF
:105CE80098BF0388DAB2028003889AB21143018010
:105CF8007047808E80B27047008F80B27047808F67
:105D080080B27047B0F8400080B27047808C80B293
:105D18007047008D80B27047038A19420CBF00207B
:105D280001207047C9438AB202827047038A828978
:105D380011EA030092B203D011420CBF00200120E7
:105D48007047C9438AB20282704700BF08B5224B28
:105D580098422BD00FD8A3F5006188421ED001F5D8
:105D68008062904236D14FF480200121FFF71EFA5D
:105D78004FF4802029E0194B98421FD003F5684161
:105D8800884227D101214FF48040FFF703FA4FF4EE
:105D980080400021BDE80840FFF7FCB94FF400300F
:105DA8000121FFF703FA4FF400300EE04FF4002012
:105DB8000121FFF7FBF94FF4002006E04FF48010B3
:105DC8000121FFF7F3F94FF480100021BDE80840E6
:105DD800FFF7ECB908BD00BF004C00400050004080
:105DE800038A30B50D460446EA8898B220F440513B
:105DF80011432182A3892889A98823F4B05340EA52
:105E08000102688923F00C0102430804030C1A43B9
:105E180091B2A181A08AAA8983B223F4407187B084
:105E28001143A18201A8FFF74DF90E482968844261
:105E38000CBF04980398192358438A00B0FBF2F169
:105E48006423B1FBF3F00201100903FB10110801F0
:105E58003230B0FBF3F303F00F010A4390B2208114
:105E680007B030BD0038014000214FF416530C2212
:105E780003608180C18001814281818170470B88E4
:105E880010B54C88028A23438C88C98892B2234370
:105E98000B4322F4706213439BB2038210BD0023AC
:105EA800038043808380C3807047838919B199B286
:105EB80041F4005303E023F400510A04130C8381D6
:105EC8007047C1F3421310B5012401F01F01A3422A
:105ED80004FA01F101D10C3004E0022B01D1103099
:105EE80000E01430036812B143EA010201E023EA3A
:105EF8000102026010BD838A9BB20AB1194301E016
:105F080023EA010181827047038A23F00F021304F8
:105F18001A0C0282038A9AB211430182704783895C
:105F280023F4006213041A0C828183899AB2114304
:105F380081817047838919B199B241F0020303E066
:105F480023F002010A04130C83817047038A23F0AB
:105F5800200213041A0C0282038A9AB211430182A6
:105F68007047038A19B199B241F4804303E023F4DE
:105F780080410A04130C03827047C905CA0D828048
:105F880070478088C105C80D7047838999B241F070
:105F9800010282817047038BDAB20283038B9AB2C3
:105FA80042EA012101837047038B03F47F42028395
:105FB800038B9AB2114301837047838A19B199B24E
:105FC80041F0200303E023F020010A04130C83822C
:105FD8007047838A19B199B241F0100303E023F0A6
:105FE80010010A04130C83827047838A19B199B28D
:105FF80041F0080303E023F008010A04130C83822C
:106008007047838A23F0040213041A0C8282838A5D
:106018009AB2114381827047838A19B199B241F0CB
:10602800020303E023F002010A04130C8382704781
:10603800038819420CBF002001207047C9438AB267
:106048000280704710B5C1F34214012201F01F030A
:10605800012C02FA03F201D1838903E0022C0CBF60
:10606800038A838A9BB20088134082B243B1090A2B
:10607800012303FA01F010420CBF0020012010BDDB
:10608800184610BD090A012303FA01F3DA4391B255
:106098000180704730BF704720BF704740BF7047CE
:1060A800BFF36F8F7047BFF34F8F7047BFF35F8F9A
:1060B800704701DF7047EFF31480704780F314884E
:1060C800BFF36F8F7047EFF30980704780F309883B
:1060D8007047EFF30880704780F30888704772B6FE
:1060E800704762B6704771B6704761B6704780F303
:1060F80011887047EFF31280704740BA704700BAB2
:1061080070470000684620F007018D4601B500235E
:106118000B4A0C499818884204D20B495858985091
:106128000433F5E7094B0A4A934203D2002043F8A7
:10613800040BF8E7FDF705FCBDE80140854670470C
:106148000000002070010020688E00087001002007
:10615800D80C0020032A2DE9F00109D82AB1002320
:10616800CC5CC45401339342FAD1BDE8F0017047C6
:106178000B468218014603E02478013301F8014BED
:1061880011F0030F1C46F7D113F003055DD06E42E2
:10619800C5F1040CED009B594FEACC0C08E004341F
:1061A800A7593B4607FA0CF748EA070741F8047B6A
:1061B800571A23FA05F8032FF1DC03E014F8013B22
:1061C80001F8013B8A42F9D8CFE753F8404C41F82F
:1061D800404C53F83C4C41F83C4C53F8384C41F88F
:1061E800384C53F8344C41F8344C53F8304C41F89F
:1061F800304C53F82C4C41F82C4C53F8284C41F8AF
:10620800284C53F8244C41F8244C53F8204C41F8BE
:10621800204C53F81C4C41F81C4C53F8184C41F8CE
:10622800184C53F8144C41F8144C53F8104C41F8DE
:10623800104C53F80C4C41F80C4C53F8084C41F8EE
:10624800084C53F8044C41F8044C561A1D460C46A9
:10625800403340313F2EB8DC2B460FE053F8101C7A
:1062680044F8101C53F80C1C44F80C1C53F8081C78
:1062780044F8081C53F8041C44F8041C161B214657
:106288001D46103410330F2EE8DC2B4602E024683C
:1062980041F8044B551A1C46032D03F10403F6DCA0
:1062A80090E700BF81F0004102E000BF83F00043A7
:1062B80030B54FEA41044FEA430594EA050F08BF99
:1062C80090EA020F1FBF54EA000C55EA020C7FEA5D
:1062D800645C7FEA655C00F0E2804FEA5454D4EBDA
:1062E8005555B8BF6D420CDD2C4480EA020281EAA4
:1062F800030382EA000083EA010180EA020281EADC
:106308000303362D88BF30BD11F0004F4FEA01312D
:106318004FF4801C4CEA113102D0404261EB41013C
:1063280013F0004F4FEA03334CEA133302D05242C2
:1063380063EB430394EA050F00F0A780A4F101047E
:10634800D5F1200E0DDB02FA0EFC22FA05F28018B8
:1063580041F1000103FA0EF2801843FA05F359419E
:106368000EE0A5F120050EF1200E012A03FA0EFC1D
:1063780028BF4CF0020C43FA05F3C01851EBE37147
:1063880001F0004507D54FF0000EDCF1000C7EEB64
:1063980000006EEB0101B1F5801F1BD3B1F5001FA2
:1063A8000CD349085FEA30004FEA3C0C04F10104C1
:1063B8004FEA445212F5800F80F09A80BCF1004FEA
:1063C80008BF5FEA500C50F1000041EB045141EA6C
:1063D800050130BD5FEA4C0C404141EB010111F46D
:1063E800801FA4F10104E9D191F0000F04BF014618
:1063F8000020B1FA81F308BF2033A3F10B03B3F1F6
:1064080020020CDA0C3208DD02F1140CC2F10C0285
:1064180001FA0CF021FA02F10CE002F11402D8BFE3
:10642800C2F1200C01FA02F120FA0CFCDCBF41EAAF
:106438000C019040E41AA2BF01EB0451294330BD7E
:106448006FEA04041F3C1CDA0C340EDC04F114045B
:10645800C4F1200220FA04F001FA02F340EA030032
:1064680021FA04F345EA030130BDC4F10C04C4F178
:10647800200220FA02F001FA04F340EA0300294658
:1064880030BD21FA04F0294630BD94F0000F83F4A2
:10649800801306BF81F480110134013D4EE77FEA85
:1064A800645C18BF7FEA655C29D094EA050F08BFD1
:1064B80090EA020F05D054EA000C04BF19461046B2
:1064C80030BD91EA030F1EBF0021002030BD5FEAF6
:1064D800545C05D14000494128BF41F0004130BD1E
:1064E80014F580043CBF01F5801130BD01F0004572
:1064F80045F0FE4141F470014FF0000030BD7FEAE5
:10650800645C1ABF194610467FEA655C1CBF0B46DF
:10651800024650EA013406BF52EA033591EA030FF6
:1065280041F4002130BD00BF90F0000F04BF0021EE
:10653800704730B54FF4806404F132044FF0000521
:106548004FF0000150E700BF90F0000F04BF00219A
:10655800704730B54FF4806404F1320410F0004500
:1065680048BF40424FF000013EE700BF42004FEAFB
:10657800E2014FEA31014FEA02701FBF12F07F4378
:1065880093F07F4F81F06051704792F0000F14BF75
:1065980093F07F4F704730B54FF4607401F00045B9
:1065A80021F0004120E700BF50EA010208BF704710
:1065B80030B54FF000050AE050EA010208BF704705
:1065C80030B511F0004502D5404261EB41014FF46E
:1065D800806404F132045FEA915C3FF4DCAE4FF072
:1065E80003025FEADC0C18BF03325FEADC0C18BF59
:1065F800033202EBDC02C2F1200300FA03FC20FAAA
:1066080002F001FA03FE40EA0E0021FA02F11444F6
:10661800C1E600BF70B54FF0FF0C4CF4E06C1CEA0B
:1066280011541DBF1CEA135594EA0C0F95EA0C0F80
:1066380000F0DEF82C4481EA030621EA4C5123EAF3
:106648004C5350EA013518BF52EA033541F4801122
:1066580043F4801338D0A0FB02CE4FF00005E1FBD5
:1066680002E506F00042E0FB03E54FF00006E1FB1F
:1066780003569CF0000F18BF4EF0010EA4F1FF0462
:10668800B6F5007F64F5407404D25FEA4E0E6D41A2
:1066980046EB060642EAC62141EA55514FEAC520B3
:1066A80040EA5E504FEACE2EB4F1FD0C88BFBCF52F
:1066B800E06F1ED8BEF1004F08BF5FEA500E50F1E0
:1066C800000041EB045170BD06F0004646EA0101A6
:1066D80040EA020081EA0301B4EB5C04C2BFD4EBD8
:1066E8000C0541EA045170BD41F480114FF0000ED1
:1066F800013C00F3AB8014F1360FDEBF002001F03F
:10670800004170BDC4F10004203C35DA0C341BDCB8
:1067180004F11404C4F1200500FA05F320FA04F08A
:1067280001FA05F240EA020001F0004221F00041BE
:1067380010EBD37021FA04F642EB06015EEA430E31
:1067480008BF20EAD37070BDC4F10C04C4F1200561
:1067580000FA04F320FA05F001FA04F240EA020014
:1067680001F0004110EBD37041F100015EEA430EE5
:1067780008BF20EAD37070BDC4F1200500FA05F205
:106788004EEA020E20FA04F301FA05F243EA020384
:1067980021FA04F001F0004121FA04F220EA020093
:1067A80000EBD3705EEA430E08BF20EAD37070BDD9
:1067B80094F0000F0FD101F00046400041EB0101B9
:1067C80011F4801F08BF013CF7D041EA060195F09B
:1067D800000F18BF704703F00046520043EB030355
:1067E80013F4801F08BF013DF7D043EA0603704742
:1067F80094EA0C0F0CEA135518BF95EA0C0F0CD04D
:1068080050EA410618BF52EA4306D1D181EA030192
:1068180001F000414FF0000070BD50EA410606BF8C
:106828001046194652EA430619D094EA0C0F02D1D1
:1068380050EA013613D195EA0C0F05D152EA033616
:106848001CBF104619460AD181EA030101F0004134
:1068580041F0FE4141F470014FF0000070BD41F07D
:10686800FE4141F4780170BD70B54FF0FF0C4CF457
:10687800E06C1CEA11541DBF1CEA135594EA0C0F76
:1068880095EA0C0F00F0A7F8A4EB050481EA030EC3
:1068980052EA03354FEA013100F088804FEA0333AA
:1068A8004FF0805545EA131343EA12634FEA022278
:1068B80045EA111545EA10654FEA00260EF0004139
:1068C8009D4208BF964244F1FD0404F5407402D28B
:1068D8005B084FEA3202B61A65EB03055B084FEA1C
:1068E80032024FF480104FF4002CB6EB020E75EB19
:1068F800030E22BFB61A754640EA0C005B084FEA41
:106908003202B6EB020E75EB030E22BFB61A7546BD
:1069180040EA5C005B084FEA3202B6EB020E75EB08
:10692800030E22BFB61A754640EA9C005B084FEA80
:106938003202B6EB020E75EB030E22BFB61A75468D
:1069480040EADC0055EA060E18D04FEA051545EA7C
:1069580016754FEA06164FEAC30343EA52734FEA25
:10696800C2025FEA1C1CC0D111F4801F0BD141EA9E
:1069780000014FF000004FF0004CB6E711F4801F03
:1069880004BF01430020B4F1FD0C88BFBCF5E06FE3
:106998003FF6AFAEB5EB030C04BFB6EB020C5FEAF3
:1069A800500C50F1000041EB045170BD0EF0004E48
:1069B8004EEA113114EB5C04C2BFD4EB0C0541EA7A
:1069C800045170BD41F480114FF0000E013C90E677
:1069D80045EA060E8DE60CEA135594EA0C0F08BF3B
:1069E80095EA0C0F3FF43BAF94EA0C0F0AD150EA3A
:1069F80001347FF434AF95EA0C0F7FF425AF1046CD
:106A080019462CE795EA0C0F06D152EA03353FF4F4
:106A1800FDAE1046194622E750EA410618BF52EA71
:106A280043067FF4C5AE50EA41047FF40DAF52EA45
:106A380043057FF4EBAE12E74FEA410212F500126C
:106A480015D211D56FF47873B3EB625212D94FEAAD
:106A5800C12343F0004343EA505311F0004F23FA97
:106A680002F018BF404270474FF00000704750EAEC
:106A7800013005D111F0004008BF6FF000407047A9
:106A88004FF00000704700BF80F0004002E000BFF8
:106A980081F0004142001FBF5FEA410392EA030F01
:106AA8007FEA226C7FEA236C6AD04FEA1262D2EB4B
:106AB8001363C1BFD218414048404140B8BF5B4250
:106AC800192B88BF704710F0004F40F4000020F0E9
:106AD8007F4018BF404211F0004F41F4000121F0FF
:106AE8007F4118BF494292EA030F3FD0A2F1010249
:106AF80041FA03FC10EB0C00C3F1200301FA03F187
:106B080000F0004302D5494260EB4000B0F5000FA9
:106B180013D3B0F1807F06D340084FEA310102F168
:106B28000102FE2A51D2B1F1004F40EBC25008BF1A
:106B380020F0010040EA03007047490040EB0000E4
:106B480010F4000FA2F10102EDD1B0FA80FCACF113
:106B5800080CB2EB0C0200FA0CF0AABF00EBC25012
:106B680052421843BCBFD0401843704792F0000F00
:106B780081F4000106BF80F400000132013BB5E753
:106B88004FEA41037FEA226C18BF7FEA236C21D0C9
:106B980092EA030F04D092F0000F08BF084670472E
:106BA80090EA010F1CBF0020704712F07F4F04D1FC
:106BB800400028BF40F00040704712F100723CBF0F
:106BC80000F50000704700F0004343F0FE4040F439
:106BD800000070477FEA226216BF08467FEA2363F7
:106BE8000146420206BF5FEA412390EA010F40F4E2
:106BF800800070474FF0000304E000BF10F000432E
:106C080048BF40425FEA000C08BF704743F0964314
:106C180001464FF000001CE050EA010208BF70472F
:106C28004FF000030AE000BF50EA010208BF7047B6
:106C380011F0004302D5404261EB41015FEA010CCB
:106C480002BF84460146002043F0B64308BFA3F1C3
:106C58008053A3F50003BCFA8CF2083AA3EBC253A5
:106C680010DB01FA02FC634400FA02FCC2F12002C4
:106C7800BCF1004F20FA02F243EB020008BF20F0FB
:106C88000100704702F1200201FA02FCC2F1200261
:106C980050EA4C0021FA02F243EB020008BF20EA56
:106CA800DC7070474FF0FF0C1CEAD0521EBF1CEA84
:106CB800D15392EA0C0F93EA0C0F6FD01A4480EA72
:106CC800010C400218BF5FEA41211ED04FF000635B
:106CD80043EA501043EA5111A0FB01310CF0004087
:106CE800B1F5000F3EBF490041EAD3715B0040EAAD
:106CF800010062F17F02FD2A1DD8B3F1004F40EB7D
:106D0800C25008BF20F00100704790F0000F0CF04F
:106D1800004C08BF49024CEA502040EA51207F3A13
:106D2800C2BFD2F1FF0340EAC250704740F40000EE
:106D38004FF00003013A5DDC12F1190FDCBF00F0DF
:106D480000407047C2F10002410021FA02F1C2F18D
:106D5800200200FA02FC5FEA310040F1000053EA29
:106D68004C0308BF20EADC70704792F0000F00F077
:106D7800004C02BF400010F4000F013AF9D040EA7D
:106D88000C0093F0000F01F0004C02BF490011F411
:106D9800000F013BF9D041EA0C018FE70CEAD1530F
:106DA80092EA0C0F18BF93EA0C0F0AD030F0004C8F
:106DB80018BF31F0004CD8D180EA010000F0004043
:106DC800704790F0000F17BF90F0004F084691F001
:106DD800000F91F0004F14D092EA0C0F01D142023B
:106DE8000FD193EA0C0F03D14B0218BF084608D104
:106DF80080EA010000F0004040F0FE4040F400004E
:106E0800704740F0FE4040F4400070474FF0FF0CE0
:106E18001CEAD0521EBF1CEAD15392EA0C0F93EA27
:106E28000C0F69D0A2EB030280EA010C49024FEA79
:106E3800402037D04FF0805343EA111143EA101332
:106E48000CF000408B4238BF5B0042F17D024FF4EA
:106E5800000C8B4224BF5B1A40EA0C00B3EB510FC5
:106E680024BFA3EB510340EA5C00B3EB910F24BFAE
:106E7800A3EB910340EA9C00B3EBD10F24BFA3EB33
:106E8800D10340EADC001B0118BF5FEA1C1CE0D1FB
:106E9800FD2A3FF650AF8B4240EBC25008BF20F0AE
:106EA800010070470CF0004C4CEA50207F32C2BF02
:106EB800D2F1FF0340EAC250704740F400004FF09F
:106EC8000003013A37E792F0000F00F0004C02BFD0
:106ED800400010F4000F013AF9D040EA0C0093F09A
:106EE800000F01F0004C02BF490011F4000F013BF4
:106EF800F9D041EA0C0195E70CEAD15392EA0C0F5C
:106F080008D142027FF47DAF93EA0C0F7FF470AF93
:106F1800084676E793EA0C0F04D14B023FF44CAFD6
:106F280008466EE730F0004C18BF31F0004CCAD16B
:106F380030F000427FF45CAF31F000437FF43CAFA7
:106F48005FE700BF4FF0FF3C06E000BF4FF0010CC9
:106F580002E000BF4FF0010C4DF804CD4FEA4002AB
:106F68004FEA41037FEA226C18BF7FEA236C11D0F5
:106F780001B052EA530C18BF90EA010F58BFB2EBA8
:106F8800030088BFC81738BF6FEAE17018BF40F028
:106F9800010070477FEA226C02D15FEA402C05D1DC
:106FA8007FEA236CE4D15FEA412CE1D05DF8040B61
:106FB800704700BF844608466146FFE70FB5FFF7F4
:106FC800C9FF002848BF10F1000F0FBD4DF808EDAC
:106FD800FFF7F4FF0CBF012000205DF808FB00BF9D
:106FE8004DF808EDFFF7EAFF34BF012000205DF8F7
:106FF80008FB00BF4DF808EDFFF7E0FF94BF012044
:1070080000205DF808FB00BF4DF808EDFFF7D2FF40
:1070180094BF012000205DF808FB00BF4DF808ED83
:10702800FFF7C8FF34BF012000205DF808FB00BF50
:107038004FEA4002B2F1FE4F0FD34FF09E03B3EB7D
:1070480012620DD94FEA002343F0004310F0004FBD
:1070580023FA02F018BF404270474FF00000704713
:1070680012F1610F01D1420205D110F0004008BFB2
:107078006FF0004070474FF00000704770B542F263
:10708800FB16C3F6E97621F00044B44286B0024606
:107098000B461ADD4FF6FF75C7F6EF75AC4203DDF8
:1070A800FFF704F906B070BD02AA00F0D1F800F0AD
:1070B8000303012B17D0022B0CD0F3B9DDE9020131
:1070C800DDE9042300F0CCFBECE70022002300F00C
:1070D800C7FBE7E7DDE90201DDE9042300F0C0FBB7
:1070E80001F10041DEE70093DDE90201DDE9042357
:1070F80001F0B2F801F10041D4E70123DDE9020112
:107108000093DDE9042301F0A7F8CBE770B542F25C
:10711800FB16C3F6E97621F00044B44286B0024675
:107128000B461CDD4FF6FF75C7F6EF75AC4203DD65
:10713800FFF7BCF806B070BD02AA00F089F800F0AD
:10714800030001281DD0022810D008BB0123DDE967
:1071580002010093DDE9042301F07EF8EAE700224A
:1071680000230024009401F077F8E3E70123DDE928
:1071780002010093DDE9042301F06EF801F10041FA
:10718800D8E7DDE90201DDE9042300F069FBD1E776
:10719800DDE90201DDE9042300F062FB01F10041B1
:1071A800C8E700BF2DE9704F8AB004460D4600F0CD
:1071B80077FA40F27806C2F2000696F90030B3F189
:1071C800FF3F8046894631D02046294601F090F994
:1071D80000282BD04FF0000A4FF0000B204629461C
:1071E80052465B4601F01AFC00B3367848F65C63F9
:1071F800C0F6000301220193002300920893CDE911
:107208000445CDE90245B6B15046594652465B465B
:10721800FFF72AFB022ECDE906010ED101F026FC6C
:1072280021230360089B73B9DDE906894046494676
:107238000AB0BDE8708FCDE906AB684601F0A0F949
:107248000028EFD1EAE701F011FC089B0360EBE7A7
:1072580042F2FB132DE9F04FC3F6E97321F0004425
:107268008DB09C42804689460E46154640F3A7805D
:107278004DF67B13C4F202039C4226DC002940F33E
:10728800AD8191A3D3E90023FFF710F842F2FB1375
:10729800C3F6F9739C428046894600F0A5808CA30A
:1072A800D3E900230127FFF701F802460B46C5E999
:1072B800000140464946FEF7F9FF85A3D3E90023BC
:1072C800FEF7F4FFC5E9020180E042F2FB13C4F2C5
:1072D80039139C4240F3A5804FF6FF73C7F6EF734E
:1072E8009C4277DC4FEA245B0246ABF5826BABF13C
:1072F800060B4FEA0B51631ACDE902231946FFF733
:107308009BFBFFF721F98046894602460B46DDE9DB
:107318000201CDE90689FEF7C9FF00230022C4F265
:107328007013FFF777F9CDE90201FFF785FBFFF747
:107338000BF902460B4680468946DDE90201CDE994
:107348000889FEF7B3FF00230022C4F27013FFF789
:1073580061F900220023CDE90A0101F055FB00285C
:1073680000F060810DF1180A0324404649460022C6
:1073780000230AF10807013C01F046FB40B177E918
:10738800020100220023013C01F03EFB0028F6D157
:107398002346574C504629465A46019402240094E5
:1073A80000F086FB002E074610DA6A68474202F1B1
:1073B80000426A60EA6802F10042EA6006E00027DB
:1073C800C2E9008900230022C5E9022338460DB02E
:1073D800BDE8F08F02460B46FEF768FF0027C5E9B7
:1073E8000201C5E90001F1E73BA3D3E90023012726
:1073F800FEF75CFF3AA3D3E9002380468946FEF7EF
:1074080055FF02460B46C5E9000140464946FEF7CE
:107418004DFF33A3D3E90023FEF748FFC5E9020176
:10742800D4E700F0CDFF30A3D3E900238046894696
:10743800FFF7F0F800230022C3F6E073FEF738FFE9
:10744800FFF7FAFA0746FFF77FF81FA3D3E90023EF
:10745800CDE90201FFF7DEF802460B4640464946F1
:10746800FEF724FF1AA3D3E9002380468946DDE905
:107478000201FFF7CFF81F2F82468B463ADC48F609
:10748800A0237A1EC0F6000353F82230A34231D05D
:1074980052465B4640464946FEF708FF02460B4601
:1074A800C5E9002340464946FEF700FF52465B46C1
:1074B800FEF7FCFE002EC5E9020187DA6A687F4202
:1074C80075E700BFAFF3008000004054FB21F93F8F
:1074D8003163621A61B4D03D0000601A61B4D03DD6
:1074E8007370032E8A19A33B83C8C96D305FE43FCC
:1074F800208B000852465B4640464946FEF7D6FEBA
:1075080024150B46C1F30A51611A02461029C5E930
:107518000023C7DD56A3D3E90023DDE90201FFF705
:1075280079F882468B4652465B4640464946FEF706
:10753800BDFECDE904014046DDE904234946FEF7D6
:10754800B5FE52465B46FEF7B1FE4BA3D3E90023D6
:1075580080468946DDE90201FFF75CF842464B4662
:10756800FEF7A4FE82468B465246DDE904015B46DF
:10757800FEF79CFE0B46C1F30A51641A0246312CF1
:10758800C5E9002370DD3EA3D3E90023DDE902014C
:10759800FFF740F882468B4652465B46DDE9040118
:1075A800FEF784FE8046894642464B46DDE90401E3
:1075B800FEF77CFE52465B46FEF778FE32A3D3E91F
:1075C800002382468B46DDE90201FFF723F8524685
:1075D8005B46FEF76BFE82468B4659E72CA3D3E940
:1075E8000023FEF765FE42F2FB13C3F6F9739C42D3
:1075F800804689461AD028A3D3E900234FF0FF37E5
:10760800FEF756FE02460B46C5E9000140464946CC
:10761800FEF74CFE20A3D3E90023FEF749FEC5E997
:107628000201D3E603240DF1180AB1E610A3D3E949
:1076380000234FF0FF37FEF73BFE0FA3D3E90023EB
:1076480080468946FEF734FE02460B46C5E900012E
:1076580040464946FEF72AFE07A3D3E90023FEF772
:1076680027FEC5E90201B1E6DDE904891AE700BF92
:107678000000601A61B4D03D7370032E8A19A33BD1
:107688000000002E8A19A33BC14920259A837B3923
:1076980000004054FB21F93F3163621A61B4D03DC8
:1076A8004FF0000C02462DE9F843E046C7F6F07C9F
:1076B800C7F6F07801EA0C0C0446C4450D460B46A3
:1076C8000E46074600F0B080002940F3A0800A1556
:1076D8007ED026F07F4312F0010FA2F57E7C23F4C2
:1076E8007003ACF1070C43F4801362D0FA0F002644
:1076F80002EB43034FEA6C0C7F00162031464FF42F
:1077080000128C18FD0F9C424FEA4707DEBFC4EBFE
:107718000303A118B6185208013805EB4303F0D14A
:10772800202580464FF00042994202EB08040EDB08
:107738008B4214BF4FF000094FF00109BC428CBFC7
:107748004FF0000909F00109B9F1000F0ED004F05B
:10775800004904EB0208B9F1004F23D089465B1AAF
:10776800BC4288BF013B3F1B80184946FC0F5208AA
:107778007F00013D04EB4303D6D13B431ED14008B3
:107788004FEA0C52731002F17E5216F0010F18BF27
:1077980040F0004002F5C002D518044620462946AC
:1077A800BDE8F883B8F1000FA8BF01F10109D6DAE6
:1077B800D4E7FA0F7F0002EB430397E7B0F1FF3FEE
:1077C8001CBF00F001031818D9D101362846D7E7A5
:1077D800012216F4801335D17600013316F4801F88
:1077E800FAD0C3F1200137FA01F1D21A0E439F40B3
:1077F80026F07F4312F0010FA2F57E7C23F470037C
:10780800ACF1070C43F480137FF470AFD1E721F09B
:10781800004C5CEA000CC1D0B9B9FE0A153B7F05E3
:10782800002EFAD05A1CD4E7FEF7F4FE02460B46A7
:1078380020462946FEF73CFD04460D4620462946CB
:10784800BDE8F88320210023CDE702460B46FEF76A
:107858002DFD02460B46FFF707F804460D469DE747
:107868002DE9F04F21F0004685B0B6F1795F8046EA
:107878008946CDE900236DDAFFF7DEF8002800F02D
:10788800F78042464B4640464946FEF7C3FE7CA376
:10789800D3E9002304460D46FEF7BCFE7AA3D3E9DC
:1078A8000023FEF705FD22462B46FEF7B3FE78A31C
:1078B800D3E90023FEF7FAFC22462B46FEF7AAFE80
:1078C80075A3D3E90023FEF7F3FC22462B46FEF707
:1078D800A1FE73A3D3E90023FEF7E8FC22462B465A
:1078E800FEF798FE70A3D3E90023FEF7E1FC2246D9
:1078F8002B46FEF78FFE82468B4600230022204649
:107908002946C3F6E073FEF785FE52465B460646F7
:107918000F4620462946FEF77DFEDDE90023044692
:107928000D4640464946FEF775FE02460B46204680
:107938002946FEF7BBFC02460B4630463946FEF7A1
:10794800B5FC0B4600210246C3F6F0710020FEF795
:10795800ADFC7FE002460B46FEF75CFE48A3D3E988
:10796800002304460D46FEF755FE47A3D3E900233E
:10797800FEF79EFC22462B46FEF74CFE44A3D3E9B5
:107988000023FEF793FC22462B46FEF743FE42A354
:10799800D3E90023FEF78CFC22462B46FEF73AFE7D
:1079A8003FA3D3E90023FEF781FC22462B46FEF7CE
:1079B80031FE3DA3D3E90023FEF77AFC2B4622468D
:1079C800FEF728FE43F23233C3F6D3739E42824653
:1079D8008B4692DD0023C3F6E9739E423DDC00210D
:1079E800A6F5001300220020C3F6F07116461F46C4
:1079F800FEF75CFCCDE9020100232046294600225F
:107A0800C3F6E073FEF706FE32463B46FEF74EFC31
:107A180052465B4606460F4620462946FEF7FAFDC3
:107A2800DDE9002304460D4640464946FEF7F2FDCF
:107A380002460B4620462946FEF738FC02460B460E
:107A480030463946FEF732FC02460B46DDE90201B4
:107A5800FEF72CFC05B0BDE8F08F002300270022BC
:107A6800C3F6E7730026CDE90223C3F6D277C3E74E
:107A780000210020C3F6F071ECE700BFAFF30080EF
:107A8800D43888BEE9FAA8BDC4B1B4BD9EEE213E83
:107A9800AD529C804F7E923E9015CB19A001FA3EC4
:107AA8007751C1166CC1563F4C5555555555A53F94
:107AB8002DE9F04FADF51B7D144648F62845059095
:107AC800D01EA49AC0F60005089118211F4655F843
:107AD8002250099500F0E8FD7B1E18220393099DAA
:107AE80020EAE0700A90C34302FB0342039C15EBB3
:107AF800040806921BD4041BA5985CAEA04400EBB6
:107B0800840509E028680435FEF71EFD444504F1A4
:107B18000104E6E902010AD0002CF3DA0020002172
:107B280004354445E6E9020104F10104F4D1099958
:107B38000029C0F26883099CBA460DF1300B0EABE0
:107B4800079303EBC4040194DDF80CE0BEF1000FC9
:107B5800BCBF4FF000084FF0000919DB5EA8059E76
:107B680000EBCA054FF000084FF00009002475E942
:107B780002230134F6E80201FEF74CFD02460B46EB
:107B880040464946FEF794FBBC4280468946EED102
:107B9800019E0AF1010AEBE90289B345D4D109999A
:107BA80086AA9AAC4B1E0E4602EB81020C929B00F1
:107BB8000B93E4180D9407984FEAC60E002ECDF8E3
:107BC80004E000EB0E04D4E900892EDD86A9BB464B
:107BD8000D1F8246029600230022C3F670634046BA
:107BE8004946FEF717FDFEF727FFFEF7ADFC002319
:107BF8000022C4F2701306460F46FEF70BFD02463C
:107C08000B4640464946FEF751FBFEF715FF324644
:107C18003B4645F8040F74E90201FEF749FB544559
:107C280080468946D7D1029E5F46069A4046494615
:107C380000F0AAFC00224FF07F5304460D46FEF7E1
:107C4800E9FC00F0C1FB00230022C4F22003FEF788
:107C5800E1FC02460B4620462946FEF727FB0D4667
:107C68000446FEF7E9FE8246FEF76EFC02460B4626
:107C780020462946FEF71AFB069A002A80468946BE
:107C880040F3E480731E0DF51A7EC2F11801C2F1AB
:107C980017040EEB830353F8502C52FA01F0824478
:107CA80010FA01F1521A43F8502C52FA04F5002D3B
:107CB80037DD002E0AF1010A40F3A18286AB0024C9
:107CC80003EB860007E021B10124C1F1807143F87C
:107CD800041C83420ED053F8041B002CF3D04FF63B
:107CE800FF7201248342C0F2FF02C1EB020243F893
:107CF800042CF0D10699002911DD012900F0AE808D
:107D080002290CD1721E0DF51A7E0EEB820252F872
:107D1800503C23F07F4323F4400342F8503C022DAB
:107D280077D0404649460022002300F06DFE002827
:107D380000F0AC80099886420DDD86A90C9801EB0D
:107D48008603002253F8041D834242EA0102F9D156
:107D5800002A40F0E4800D9A52F8503C002B40F085
:107D680050820B9B86ACE218012352F8041D0133A4
:107D78000029FAD09B1906F1010A9A45049346DCBA
:107D8800DDF828E0F319A598013B7644019A079994
:107D98005EAC00EB860B04EBC304891801940291D6
:107DA8005BF8040FFEF7D0FBDDF80CE0019EBEF196
:107DB800000FBCBF4FF000084FF00009E6E90201D0
:107DC80001961BDB0AEB07055EA8059E4FF000082D
:107DD8004FF00009002400EBC50575E902230134C2
:107DE800F6E80201FEF716FC02460B4640464946F5
:107DF800FEF75EFABC4280468946EED1049A0AF143
:107E0800010A02999245E1E902890291C8DD049EBE
:107E1800D1E6002142464B460020C3F6F071FEF73A
:107E280045FA80468946002C3FF47BAF0021069A2C
:107E38000020C3F6F07100F0A7FB02460B4640464F
:107E48004946FEF733FA804689466AE713D19AA86D
:107E580000EB860353F8545CED1528E7721E9AABC5
:107E680003EB820252F8503C23F07F4323F40003D3
:107E780042F8503C53E700230022C3F6E07300F0B9
:107E8800E1FD08B900254CE7022512E7CDF80CA062
:107E98000195002846D1DDF818E040464946CEF164
:107EA800000200F071FB00230022C4F270130446A4
:107EB8000D4600F0C7FD002800F0A881002300222D
:107EC800C3F670632046294606F1010BFEF7A2FBB4
:107ED8009AAA02EB8607FEF7AFFDFEF735FB0023F3
:107EE8000DF51A7E0022C4F270130EEB8B06804645
:107EF8008946FEF78FFB0B46024629462046FEF7C9
:107F0800D5F9069A18320692FEF796FD494647F8C3
:107F1800500C4046FEF790FD46F8500C19E0CDF89D
:107F28000CA00195069B06F1FF3B9AAC183B069303
:107F38004FEA8B03E21852F8502C52B986AE069AD3
:107F4800F31853F8041D0BF1FF3B183A0029F8D039
:107F5800069200210020C3F6F071069A00F014FB87
:107F6800BBF1000F06460F465CDB0BF10105DDF89F
:107F78001CE00DF5067808EB85040EEBC50554F8F2
:107F8800040DFEF7E1FA32463B46FEF743FB0023B9
:107F98000022C3F6706365E9020130463946FEF7F0
:107FA80039FB444506460F46E9D10DF1D80A0BF1D5
:107FB800FF33CDF808A00027DDF824A0CDF810B0D5
:107FC8009B46BAF1000FC0F21381002FC0F2108156
:107FD80007994FF00008944E4FF0000901EBCB05CC
:107FE800002401E0BC4210DCF5E902230134F6E983
:107FF8000201FEF70FFB02460B4640464946FEF7D4
:1080080057F9A24580468946ECDA02980BF1FF3B06
:1080180000EBC70301371BF1020FC3E90089D0D178
:10802800DDF810B0A49A032A22D8DFE812F0C300C2
:1080380082008200280000270DF1D80A3E46019BE5
:10804800002B00F0F880DAF8000006F10046DAF8B4
:108058000820089CDAF80410DAF80C3001F1004125
:10806800206003F100436160A260E36027616661FC
:10807800039E06F007000DF51B7DBDE8F08FBBF1F0
:10808800000FD8DD0DF1D80A0AEBCB0454E90267DA
:1080980074E802893046394642464B46FEF708F9ED
:1080A800C4E900013046D4E900233946FEF7FEF85A
:1080B80002460B4640464946FEF7FAF85445C4E9DD
:1080C8000201E3D1BBF1010F40F3C3800BF1FF3490
:1080D8000AEBC40474E8026730463946D4E904233D
:1080E800FEF7E6F88046894642464B463046394612
:1080F800FEF7DCF802460B46D4E90401FEF7D8F88F
:108108005445C4E90289C4E90401E3D10BF101042F
:1081180000270AF110053E460AEBC404384674E904
:1081280002233146FEF7C4F8AC4207460E46F5D1A5
:1081380085E7BBF1000F79DB0BF101040DF1D80ADB
:1081480000260AEBC4043546304674E90223294662
:10815800FEF7AEF8544506460D46F5D101980028BD
:108168004BD005F10044214632463446089E2B4642
:108178000D46DAE90001C6E90045FEF797F8BBF1BC
:10818800000F03460C460BDD0AEBCB0B18462146C5
:10819800FAE90223FEF78CF8DA4503460C46F5D1D6
:1081A800019808B104F10044089A18462146C2E92A
:1081B80002015DE7BBF1000F33DB0BF1010436ADC3
:1081C800002705EBC4043E46384674E902233146CD
:1081D800FEF76EF8AC4207460E46F5D1019C0CB18D
:1081E80006F100463346089E3A46C6E900233FE7B3
:1081F8004FF000084FF0000907E72C46B3E70024CA
:1082080078E50123B6E50EAA0792C8E420469AABA2
:10821800294603EB8604FEF70FFCB34644F8500CDE
:1082280097E600273E46D9E7308C000800260DF176
:10823800D80A354692E7DAE900013346DAE9024519
:108248003A46089EC6E90423C6E90001C6E9024584
:108258000EE700273E46F2E62DE9F04F9B4621F057
:10826800004385B0B3F1795F04460D46924603DAC0
:10827800FEF7E2FB00286ED022462B462046294610
:10828800FEF7C8F922462B4606460F46FEF7C2F906
:108298003FA3D3E900238046894630463946FEF796
:1082A800B9F93DA3D3E90023FEF700F832463B466F
:1082B800FEF7B0F93AA3D3E90023FDF7F9FF3246F8
:1082C8003B46FEF7A7F938A3D3E90023FDF7EEFFF5
:1082D80032463B46FEF79EF935A3D3E90023FDF766
:1082E800E7FF0E9BCDE90001002B39D000230022C7
:1082F800C3F6E07350465946FEF78CF9DDE90023D2
:10830800CDE9020140464946FEF784F902460B468C
:10831800DDE90201FDF7CAFF32463B46FEF77AF96E
:1083280052465B46FDF7C2FF23A3D3E90023064666
:108338000F4640464946FEF76DF902460B46304661
:108348003946FDF7B5FF02460B4620462946FDF79C
:10835800ADFF04460D462046294605B0BDE8F08F1E
:1083680002460B4630463946FEF754F912A3D3E9C4
:108378000023FDF79BFF42464B46FEF74BF90246AA
:108388000B4620462946FDF793FF04460D46E2E7D3
:108398007CD5CF5A3AD9E53DEB9C2B8AE6E55A3E87
:1083A8007DFEB157E31DC73ED561C119A0012A3F23
:1083B800A6F810111111813F495555555555C53F1E
:1083C80021F00041704700BFC1F30A5C0246ACF5DA
:1083D8007E7C0B462DE9F047ACF10704132C0646CA
:1083E8000F468946804621DC002C40DB4FF6FF7C97
:1083F800C0F20F0C4CFA04FA0AEA0105054311D041
:1084080039A3D3E90023FDF753FF0022002300F02E
:1084180023FB00283AD0002F5DDB29EA0A09002651
:108428004B46324610461946BDE8F087332C07DD27
:10843800B4F5806FF6D1FDF73BFF02460B46F1E736
:108448004FF0FF35ACF11B0C25FA0CF50542E9D0CD
:1084580025A3D3E90023FDF72BFF0022002300F01A
:10846800FBFA98B1002F18DB26EA05060FE01EA3D9
:10847800D3E90023FDF71CFF0022002300F0ECFAEB
:1084880028B1002F17DB0026B14600E0B9464B465D
:10849800324610461946BDE8F087142C06D001264E
:1084A800C4F13404A64016EB0806DDD307F1010930
:1084B80026EA0506EBE727F000454FF0000945EAF4
:1084C8000608CBF6F079B8F1000F08BFB9460CBF23
:1084D80046460026DBE74FF4801353FA04F407EB13
:1084E80004099AE7AFF300809C7500883CE4377E66
:1084F80050EA010310B43CD0D0F1010238BF002289
:10850800B1F1004F14BF002302F00103002B30D15A
:108518004FF6FF73A1F58010C7F6DF7301F1FE4433
:10852800984204F570048CBF002001209C428CBF47
:10853800034640F00103002B20D1B1F5801F01F163
:1085480000402CBF00230123B0F5801F38BF43F043
:1085580001038BB911F5801FC7F6F07314BF002013
:108568000120994214BF014640F0010102EA0100CE
:1085780000E0022010BC70470320FBE70420F9E765
:108588000020704700000000F8B5C1F30A53044604
:108598000D4616460F46002B2BD121F00047074306
:1085A80024D000230022C4F2503343F6B047FEF72C
:1085B80031F8CFF6FF77BE4204460D4639DBC1F3EA
:1085C8000A5340F2FE72363B0F469B19934219DD5F
:1085D80022462B462AA1D1E9000100F059F828A328
:1085E800D3E90023FEF716F804460D46204629462F
:1085F800F8BD40F2FF72934225D09B1940F2FE72FB
:108608009342E5DC002BC2BF27F0FE4727F4700732
:1086180047EA0355EADC13F1350F1DDA4CF2503303
:108628009E42D5DC22462B4617A1D1E9000100F075
:108638002FF815A3D3E90023FDF7ECFF04460D46F8
:1086480020462946F8BD02460B46FDF731FE044692
:108658000D4620462946F8BD363327F0FE4727F455
:108668007007204647EA0355002329460022C3F62F
:108678009043FDF7CFFF04460D46B7E7AFF3008000
:108688009C7500883CE4377E59F3F8C21F6EA5013B
:1086980010B421F0004203F0004444EA020110BC87
:1086A800704700BF00000000002900F03E8180EA0A
:1086B800010C48BF49424A1E00F01F81030048BF11
:1086C80043428B4240F21E81114200F02381B3FAEB
:1086D80083F2B1FA81F0A0EB0202C2F11F0204A0FA
:1086E80000EB02124FF00000974600BFAFF3008086
:1086F800B3EBC17F00BF40EB000028BFA3EBC17301
:10870800B3EB817F00BF40EB000028BFA3EB817370
:10871800B3EB417F00BF40EB000028BFA3EB4173E0
:10872800B3EB017F00BF40EB000028BFA3EB017350
:10873800B3EBC16F00BF40EB000028BFA3EBC163E0
:10874800B3EB816F00BF40EB000028BFA3EB816350
:10875800B3EB416F00BF40EB000028BFA3EB4163C0
:10876800B3EB016F00BF40EB000028BFA3EB016330
:10877800B3EBC15F00BF40EB000028BFA3EBC153C0
:10878800B3EB815F00BF40EB000028BFA3EB815330
:10879800B3EB415F00BF40EB000028BFA3EB4153A0
:1087A800B3EB015F00BF40EB000028BFA3EB015310
:1087B800B3EBC14F00BF40EB000028BFA3EBC143A0
:1087C800B3EB814F00BF40EB000028BFA3EB814310
:1087D800B3EB414F00BF40EB000028BFA3EB414380
:1087E800B3EB014F00BF40EB000028BFA3EB0143F0
:1087F800B3EBC13F00BF40EB000028BFA3EBC13380
:10880800B3EB813F00BF40EB000028BFA3EB8133EF
:10881800B3EB413F00BF40EB000028BFA3EB41335F
:10882800B3EB013F00BF40EB000028BFA3EB0133CF
:10883800B3EBC12F00BF40EB000028BFA3EBC1235F
:10884800B3EB812F00BF40EB000028BFA3EB8123CF
:10885800B3EB412F00BF40EB000028BFA3EB41233F
:10886800B3EB012F00BF40EB000028BFA3EB0123AF
:10887800B3EBC11F00BF40EB000028BFA3EBC1133F
:10888800B3EB811F00BF40EB000028BFA3EB8113AF
:10889800B3EB411F00BF40EB000028BFA3EB41131F
:1088A800B3EB011F00BF40EB000028BFA3EB01138F
:1088B800B3EBC10F00BF40EB000028BFA3EBC1031F
:1088C800B3EB810F00BF40EB000028BFA3EB81038F
:1088D800B3EB410F00BF40EB000028BFA3EB4103FF
:1088E800B3EB010F00BF40EB000028BFA3EB01036F
:1088F800BCF1000F48BF404270479CEA000F48BFD8
:108908004042704738BF002004BF4FEAEC7040F087
:1089180001007047B1FA81F2C2F11F02BCF1000FE9
:1089280023FA02F048BF404270470028C8BF6FF0E2
:108938000040B8BF4FF0004000F00EB80029F4D056
:108948002DE90340FFF7B3FEBDE8064002FB00F344
:10895800A1EB0301704700BF704700BF4FF0FF3C19
:1089680006E000BF4FF0010C02E000BF4FF0010C21
:108978004DF804CD4FEA410C7FEA6C5C4FEA430C9A
:1089880018BF7FEA6C5C1BD001B050EA410C0CBFE9
:1089980052EA430C91EA030F02BF90EA020F00204B
:1089A800704710F1000F91EA030F58BF994208BFB2
:1089B80090422CBFD8176FEAE37040F0010070476F
:1089C8004FEA410C7FEA6C5C02D150EA013C07D1C6
:1089D8004FEA430C7FEA6C5CD6D152EA033CD3D011
:1089E8005DF8040B704700BF8446104662468C460B
:1089F8001946634600E000BF01B5FFF7B7FF00283E
:108A080048BF10F1000F01BD4DF808EDFFF7F4FF66
:108A18000CBF012000205DF808FB00BF4DF808EDF1
:108A2800FFF7EAFF34BF012000205DF808FB00BF14
:108A38004DF808EDFFF7E0FF94BF012000205DF836
:108A480008FB00BF4DF808EDFFF7CEFF94BF0120EB
:108A580000205DF808FB00BF4DF808EDFFF7C4FFE4
:108A680034BF012000205DF808FB00BF40F27C0302
:108A7800C2F2000318687047FFFF640402001098F0
:108A880000000000000102030401020304060708B5
:108A98000902040608000000FB21F93FFB210940F8
:108AA8007CD91240FB2119407A6A1F407CD92240A8
:108AB800BBFD2540FB2129403A462C407A6A2F40CD
:108AC8005C4731407CD932409C6B3440BBFD35401B
